:020000040000FA
:060000000A128A1110280B
:10000800FE00030EF1000A08F200831203137F08B2
:10001800F3000A168A15CB2E0A128A1113288313A5
:10002800E130FD001B30FE002B30FF00DA30840089
:100038000A168A158F230A128A11A0308400DA3032
:100048000A168A1532230A128A1120308400483091
:100058000A168A1532230A128A11F601F701F801E5
:10006800F90183010A128A15332C83120313DA006B
:1000780013305A06031D4128422828293F30D7004B
:100088005708D600AA01A901A801A80AA601A50136
:1000980083160313C0010A168A1579230A128A11D6
:1000A800833083120313CA008030CB008030D7001E
:1000B8005708CC000A168A15DE240A128A117530F0
:1000C80083120313CA008030CB00C030D700570812
:1000D800CC000A168A15DE240A128A110A168A1515
:1000E800F4230A128A11831203132008D70004305C
:1000F8000310D70CFF3E031D7C2857080339303EF8
:10010800D8005808BF0020080F39303ED7005708DC
:10011800C0000A30D7005708CC003F080A168A11D9
:10012800A3200A128A11831203134007F03ED80055
:100138005808BA000D303A02031CA328A428DA286C
:100148003A08F43ED7005708BA000A30C800003011
:10015800C9003A08D700D8015708CA005808CB0088
:100168000A168A1597270A128A1183120313480858
:10017800303ED9005908BF000A30D0000030D10005
:100188003A08D700D8015708D2005808D3000A16F1
:100198008A1570260A128A11831203135008303EFA
:1001A800D9005908C000F801F80ADB28F80121082D
:1001B800D70004300310D70CFF3E031DDE28570874
:1001C8000739303ED8005808C10021080F39303EA1
:1001D800D7005708C20078080319F328F428FD2827
:1001E8005030D7005708C3004D30D7005708C40017
:1001F80005294130D7005708C3004D30D7005708AC
:10020800C400C5010A30D7005708CC003F080A16B9
:100218008A11A3200A128A11831203134007F03EA1
:10022800D8005808BA000A30D7005708CC0041084F
:100238000A168A11A3200A128A118312031342078D
:10024800F03ED8005808BB0037305606031D2D294C
:100258002E298329290803193229332940290130F5
:10026800D7005708BB073D303B02031C3C293D29FA
:10027800C429BB01C429C4292808031944294529CC
:1002880051290130D7005708BA070D303A02031C2C
:100298004E294F29C429BA01C4292A080319552906
:1002A80056296129780803195A295C2901305D29E2
:1002B8000030D7005708F800C42926080319652913
:1002C800662972290130D7005708A3073D30230259
:1002D800031C6F297029C429A301C42925080319FF
:1002E800762977293F290130D7005708A40703301A
:1002F8002402031C802981293F29A401C4292F3005
:100308005606031D88298929C4292A0803198D2915
:100318008E299529A801A901AA01A601A60AA50165
:10032800C4292908031999299A29A129A801A901E9
:10033800AA01AA0AA601A501C42928080319A52902
:10034800A629AD29A801A901A90AAA01A601A50102
:10035800C42926080319B129B229B929A801A90174
:10036800AA01A601A501A50AC42925080319BD29C2
:10037800BE293F29A801A80AA901AA01A601A50129
:100388002A080319C829C929242A27080319CD29A5
:10039800CE290D2A78080319D229D329E229503009
:1003A800D700570883160313D1004D308312031367
:1003B800D700570883160313D200F0294130D7001D
:1003C800570883160313D1004D3083120313D70047
:1003D800570883160313D2008C3083120313D700F7
:1003E8005708CC008316031351080A128A11EA270A
:1003F8000A128A118D3083120313D7005708CC00D4
:100408008316031352080A128A11EA270A128A115C
:10041800622A8C30D7005708CC0020300A128A1183
:10042800EA270A128A118D3083120313D70057085E
:10043800CC0020300A128A11EA270A128A11622A8D
:1004480078080319282A292A382A5030D70057084B
:1004580083160313D1004D3083120313D7005708B6
:1004680083160313D200462A4130D7005708831653
:100478000313D1004D3083120313D7005708831696
:100488000313D2008C3083120313D7005708CC0013
:100498008316031351080A128A11EA270A128A11CD
:1004A8008D3083120313D7005708CC00831603132B
:1004B80052080A128A11EA270A128A1183120313B0
:1004C80029080319682A692AE52A270803196D2AC1
:1004D8006E2ACE2A0A30D0000030D1000A30C80077
:1004E8000030C9003B08D700D8015708CA0058088F
:1004F800CB000A168A1597270A128A11831203134A
:100508004908D3004808D2000A168A1570260A122C
:100518008A11831203135008303ED90059088316F4
:100528000313CF000A3083120313D0000030D10028
:100538003B08D700D8015708D2005808D3000A163C
:100548008A1570260A128A11831203135008303E46
:10055800D900590883160313D00089308312031376
:10056800D7005708CC00831603134F080A128A11C4
:10057800EA270A128A118A3083120313D700570810
:10058800CC008316031350080A128A11EA270A12AC
:100598008A11442B8930D7005708CC0020300A1222
:1005A8008A11EA270A128A118A3083120313D700A4
:1005B8005708CC0020300A128A11EA270A128A1139
:1005C800442B0A30D0000030D1000A30C800003077
:1005D800C9003B08D700D8015708CA005808CB0003
:1005E8000A168A1597270A128A11831203134908D3
:1005F800D3004808D2000A168A1570260A128A11F2
:10060800831203135008303ED90059088316031388
:10061800CF000A3083120313D0000030D1003B080A
:10062800D700D8015708D2005808D3000A168A15EF
:1006380070260A128A11831203135008303ED9001B
:10064800590883160313D000893083120313D70087
:100658005708CC00831603134F080A128A11EA2799
:100668000A128A118A3083120313D7005708CC0064
:100678008316031350080A128A11EA270A128A11EC
:1006880083120313280803194A2B4B2BC72B27085F
:1006980003194F2B502BB02B0A30D0000030D1005B
:1006A8000A30C8000030C9003A08D700D8015708F6
:1006B800CA005808CB000A168A1597270A128A1109
:1006C800831203134908D3004808D2000A168A1572
:1006D80070260A128A11831203135008303ED9007B
:1006E800590883160313CD000A3083120313D00070
:1006F8000030D1003A08D700D8015708D20058086E
:10070800D3000A168A1570260A128A118312031357
:100718005008303ED900590883160313CE0086309E
:1007280083120313D7005708CC00831603134D0810
:100738000A128A11EA270A128A11873083120313D0
:10074800D7005708CC00831603134E080A128A11E3
:10075800EA270A128A11262C8630D7005708CC00BF
:1007680020300A128A11EA270A128A118730831266
:100778000313D7005708CC0020300A128A11EA2741
:100788000A128A11262C0A30D0000030D1000A3013
:10079800C8000030C9003A08D700D8015708CA0075
:1007A8005808CB000A168A1597270A128A1183124D
:1007B80003134908D3004808D2000A168A15702680
:1007C8000A128A11831203135008303ED9005908BF
:1007D80083160313CD000A3083120313D0000030B0
:1007E800D1003A08D700D8015708D2005808D300DA
:1007F8000A168A1570260A128A11831203135008E2
:10080800303ED900590883160313CE008630831270
:100818000313D7005708CC00831603134D080A1298
:100828008A11EA270A128A11873083120313D70024
:100838005708CC00831603134E080A128A11EA27B8
:100848000A128A1183120313260803192C2C2D2C43
:10085800A92C27080319312C322C922C0A30D000ED
:100868000030D1000A30C8000030C9002308D70082
:10087800D8015708CA005808CB000A168A159727C6
:100888000A128A11831203134908D3004808D200B8
:100898000A168A1570260A128A1183120313500841
:1008A800303ED900590883160313D3000A30831247
:1008B8000313D0000030D1002308D700D80157080F
:1008C800D2005808D3000A168A1570260A128A110F
:1008D800831203135008303ED900590883160313B6
:1008E800D400C93083120313D7005708CC008316ED
:1008F800031353080A128A11EA270A128A11CA3006
:1009080083120313D7005708CC0083160313540827
:100918000A128A11EA270A128A11082DC930D7004B
:100928005708CC0020300A128A11EA270A128A11C5
:10093800CA3083120313D7005708CC0020300A129C
:100948008A11EA270A128A11082D0A30D0000030CD
:10095800D1000A30C8000030C9002308D700D801E8
:100968005708CA005808CB000A168A1597270A1292
:100978008A11831203134908D3004808D2000A16C3
:100988008A1570260A128A11831203135008303E02
:10099800D900590883160313D3000A3083120313AE
:1009A800D0000030D1002308D700D8015708D20062
:1009B8005808D3000A168A1570260A128A1183125B
:1009C80003135008303ED900590883160313D40086
:1009D800C93083120313D7005708CC0083160313BA
:1009E80053080A128A11EA270A128A11CA30831296
:1009F8000313D7005708CC008316031354080A12B0
:100A08008A11EA270A128A11831203132508031987
:100A18000E2D0F2D3B2D27080319132D142D302DC6
:100A28002408013E84000A168A110A200A128A1133
:100A3800D700570883160313D500CF30831203134A
:100A4800D7005708CC008316031355080A128A11D9
:100A5800EA270A128A11562DCF30D7005708CC0042
:100A680020300A128A11EA270A128A11562D240800
:100A7800013E84000A168A110A200A128A11D70038
:100A8800570883160313D500CF3083120313D700FA
:100A98005708CC008316031355080A128A11EA274F
:100AA8000A128A11831603134C0883120313D70002
:100AB800570883160313D600D7018830831203130F
:100AC800D7005708CC003A300A128A11EA270A12CE
:100AD8008A118B3083120313D7005708CC002030BB
:100AE8000A128A11EA270A128A118F308312031315
:100AF800D7005708CC002F300A128A11EA270A12A9
:100B08008A11C63083120313D7005708CC0030303F
:100B18000A128A11EA270A128A11C73083120313AC
:100B2800D7005708CC0030300A128A11EA270A1277
:100B38008A11C83083120313D7005708CC003A3003
:100B48000A128A11EA270A128A11CB308312031378
:100B5800D7005708CC003A300A128A11EA270A123D
:100B68008A11CC3083120313D7005708CC003030D9
:100B78000A128A11EA270A128A11CD308312031346
:100B8800D7005708CC0030300A128A11EA270A1217
:100B98008A11013083120313D700570883160313F1
:100BA800C00709304006031DDA2DDB2DE82DC001F2
:100BB8008312031327080319E22DE42D0130E52DD4
:100BC8000030D7005708A700080083120313DA0083
:100BD80017305A06031DF12DF22D702E0530F60040
:100BE8000030F700BE0112150A168A1579230A1279
:100BF8008A1101300A168A15AF250A128A11831242
:100C08000313D900590883160313CD0002300A16BE
:100C18008A15AF250A128A1183120313D9005908BD
:100C280083160313CE003A3083120313D9005908F0
:100C380083160313CF0003300A168A15AF250A124C
:100C48008A1183120313D900590883160313D0009D
:100C580004300A168A15AF250A128A118312031363
:100C6800D900590883160313D100203083120313C7
:100C7800D900590883160313D20005300A168A15BD
:100C8800AF250A128A1183120313D9005908831653
:100C98000313D30006300A168A15AF250A128A11E3
:100CA80083120313D900590883160313D400203084
:100CB80083120313D900590883160313D50009308A
:100CC8000A168A15AF250A128A1183120313D9004E
:100CD800590883160313D60000300A168A15AF2563
:100CE8000A128A11D03E83120313D9005908B6009C
:100CF80036080319802E812E162F76087704031DD7
:100D0800862E872E8F2E0230D9005908BE00053056
:100D1800F6000030F7003E080319932E942ECF2ECC
:100D28006030CA008030CB008030D9005908CC0030
:100D38000A168A15DE240A128A113F308312031319
:100D4800CA000030CB008630D9005908CC000A16FA
:100D58008A15DE240A128A118A3083120313CA0004
:100D68008030CB00C030D9005908CC000A168A154B
:100D7800DE240A128A11CD3083120313CA00003010
:100D8800CB00C630D9005908CC000A168A15DE24D3
:100D98000A128A115C2F6730CA008030CB0080307D
:100DA800D9005908CC000A168A15DE240A128A11BD
:100DB800C33083120313CA000030CB008630D90039
:100DC8005908CC000A168A15DE240A128A116030E6
:100DD80083120313CA008030CB00C030D9005908F1
:100DE800CC000A168A15DE240A128A113F308312B3
:100DF8000313CA000030CB00C630D9005908CC0014
:100E08000A168A15DE240A128A11CF3083120313B8
:100E1800D9005908CC0020300A128A11EA270A1290
:100E28008A115C2F6730CA008030CB008030D9002F
:100E38005908CC000A168A15DE240A128A11C33012
:100E480083120313CA000030CB008630D90059083A
:100E5800CC000A168A15DE240A128A116030831221
:100E68000313CA008030CB00C030D9005908CC0029
:100E78000A168A15DE240A128A113F3083120313D8
:100E8800CA000030CB00C630D9005908CC000A1679
:100E98008A15DE240A128A11CF3083120313D9006F
:100EA8005908CC0020300A128A11EA270A128A113E
:100EB8000A128A154D200A128A110A128A117327FA
:100EC8000A128A1183120313360803196C2F6D2F27
:100ED800722F0A168A1117230A128A1108000A1695
:100EE8008A157A250A128A11831603133908831280
:100EF8000313CD0004300310CD0CFF3E031D7F2FDC
:100F08004D080339303ECE004E0883160313C30044
:100F180039080F39303E83120313CD004D0883166C
:100F28000313C4002D3083120313CD004D0883161C
:100F38000313C5003A0883120313CD0004300310CD
:100F4800CD0CFF3E031DA32F4D080139303ECE00C6
:100F58004E0883160313C6003A080F39303E831231
:100F68000313CD004D0883160313C7002D308312D9
:100F78000313CD004D0883160313C8003B088312E2
:100F88000313CD0004300310CD0CFF3E031DC72F03
:100F98004D080F39303ECE004E0883160313C900A2
:100FA8003B080F39303E83120313CD004D088316DA
:100FB8000313CA00CB013C080739303E83120313E0
:100FC800CD004D0883160313CC00080083120313C9
:100FD800CD00F4014C080A168A15E4250A128A1174
:100FE800F401F40A831203134D080A168A15E4253E
:060FF8000A128A11080034
:10100200831603138801091189100A168A11BA205E
:101012000A128A15080083120313DC00DA01DB01CD
:101022000A30D0000030D1005C08D600D701560843
:10103200D2005708D3000A168A1570260A128A159A
:10104200831203135008D8005808D9000A30C80088
:101052000030C9005C08D600D7015608CA005708FC
:10106200CB000A168A1597270A128A1583120313D0
:101072004808D8005808DB005B08D600033003108C
:10108200D60DFF3E031D40280310560DD70057080A
:10109200DA0059085A0708000A168A15F4230A12B8
:1010A2008A15831203132008D60004300310D60CCD
:1010B200FF3E031D572856080339303ED700570814
:1010C200BF0020080F39303ED6005608C0000A3053
:1010D200D6005608CC003F080A168A11A3200A122D
:1010E2008A15831203134007F03ED7005708BA004F
:1010F2000D303A02031C7E287F28B5283A08F43EB8
:10110200D6005608BA000A30C8000030C9003A08B2
:10111200D600D7015608CA005708CB000A168A150E
:1011220097270A128A15831203134808303ED80003
:101132005808BF000A30D0000030D1003A08D6006B
:10114200D7015608D2005708D3000A168A1570260E
:101152000A128A15831203135008303ED800580829
:10116200C000F801F80AB628F8013A30D60056084D
:10117200C1002108D60004300310D60CFF3E031D27
:10118200BD2856080739303ED7005708C20021084B
:101192000F39303ED6005608C3002030D60056081C
:1011A200C40078080319D628D728E0285030D60082
:1011B2005608C5004D30D6005608C600E828413012
:1011C200D6005608C5004D30D6005608C600C701E5
:1011D2002208D60004300310D60CFF3E031DEC2873
:1011E20056080739303ED700570883160313D70035
:1011F2008312031322080F39303ED6005608831695
:101202000313D800D901080083120313DA00163041
:101212005A06031D0D290E29362A3F30D7005708DA
:10122200D600AE01AE0AAD01AC0183160313C101B3
:101232000A168A1579230A128A15163083120313A5
:10124200CA008030CB008030D7005708CC000A1685
:101252008A15DE240A128A150A168A157A250A12B6
:101262008A1583160313390883120313D700043037
:101272000310D70CFF3E031D392957080339303EAE
:10128200D800580883160313C30039080F39303EBB
:1012920083120313D700570883160313C4003A08B6
:1012A20083120313D70004300310D70CFF3E031D33
:1012B200552957080739303ED800580883160313BA
:1012C200C5003A080F39303E83120313D70057087E
:1012D20083160313C6003B0883120313D70004309E
:1012E2000310D70CFF3E031D712957080739303E02
:1012F200D800580883160313C7003B080F39303E45
:1013020083120313D700570883160313C800C901B9
:10131200C43083120313D7005708CC00831603137B
:1013220043080A128A11EA270A128A15C530831263
:101332000313D7005708CC008316031344080A127C
:101342008A11EA270A128A15C63083120313D700BC
:101352005708CC002D300A128A11EA270A128A1580
:10136200C73083120313D7005708CC008316031328
:1013720045080A128A11EA270A128A15C83083120E
:101382000313D7005708CC008316031346080A122A
:101392008A11EA270A128A15C93083120313D70069
:1013A2005708CC002D300A128A11EA270A128A1530
:1013B200CA3083120313D7005708CC0083160313D5
:1013C20047080A128A11EA270A128A15CB308312B9
:1013D2000313D7005708CC008316031348080A12D8
:1013E2008A11EA270A128A150A3083120313D700D8
:1013F2005708CC008316031343080A168A11A32048
:101402000A128A15831603134407F03E831203134C
:10141200D8005808B9000A30D7005708CC00831604
:10142200031345080A168A11A3200A128A15831685
:1014320003134607F03E83120313D8005808B8007E
:101442000A30D7005708CC008316031347080A1640
:101452008A11A3200A128A15831603134807F03E45
:1014620083120313D8005808B70037305606031DFD
:101472003B2A3C2A702A2D080319402A412A4D2A68
:101482000130D7005708B8070D303802031C4A2A2A
:101492004B2A932AB801932A2E080319512A522A59
:1014A2005E2A0130D7005708B90720303902031CE1
:1014B2005B2A5C2A932AB901932A2C080319622A0F
:1014C200632A6F2A0130D7005708B7076430370202
:1014D200031C6C2A6D2A932AB701932A932A2F3070
:1014E2005606031D752A762A932A2C0803197A2A8E
:1014F2007B2A802AAE01AE0AAD01AC01932A2D08E7
:101502000319842A852A8A2AAE01AD01AC01AC0AEC
:10151200932A2E0803198E2A8F2A6F2AAE01AD0153
:10152200AD0AAC012C080319972A982A9D2A2B0888
:1015320003199C2A9D2AE12A0A30D0000030D100EA
:101542000A30C8000030C9003708D700D801570850
:10155200CA005808CB000A168A1597270A128A155C
:10156200831203134908D3004808D2000A168A15C9
:1015720070260A128A15831203135008303ED900CE
:10158200590883160313AF000A3083120313D000E5
:101592000030D1003708D700D8015708D2005808C8
:1015A200D3000A168A1570260A128A1583120313AB
:1015B2005008303ED900590883160313B000EF2AB1
:1015C2002030D700570883160313AF002030831250
:1015D2000313D700570883160313B00083120313B3
:1015E2002D080319F52AF62AFB2A2B080319FA2AD1
:1015F200FB2A3F2B0A30D0000030D1000A30C8004D
:101602000030C9003808D700D8015708CA00580866
:10161200CB000A168A1597270A128A15831203131A
:101622004908D3004808D2000A168A1570260A1201
:101632008A15831203135008303ED90059088316C5
:101642000313AD000A3083120313D0000030D1001F
:101652003808D700D8015708D2005808D3000A1614
:101662008A1570260A128A15831203135008303E17
:10167200D900590883160313AE004D2B2030D70032
:10168200570883160313AD00203083120313D700CB
:10169200570883160313AE00831203132E0803198F
:1016A200532B542B592B2B080319582B592B9D2B99
:1016B2000A30D0000030D1000A30C8000030C90022
:1016C2003908D700D8015708CA005808CB000A16B3
:1016D2008A1597270A128A15831203134908D30021
:1016E2004808D2000A168A1570260A128A15831231
:1016F20003135008303ED900590883160313AB0078
:101702000A3083120313D0000030D1003908D70009
:10171200D8015708D2005808D3000A168A15702635
:101722000A128A15831203135008303ED900590851
:1017320083160313AC00AB2B2030D7005708831657
:101742000313AB00203083120313D700570883160C
:101752000313AC00C43083120313D7005708CC0024
:10176200831603132B080A128A11EA270A128A1512
:10177200C53083120313D7005708CC008316031316
:101782002C080A128A11EA270A128A15C630831215
:101792000313D7005708CC002D300A128A11EA270A
:1017A2000A128A15C73083120313D7005708CC00D8
:1017B200831603132D080A128A11EA270A128A15C0
:1017C200C83083120313D7005708CC0083160313C3
:1017D2002E080A128A11EA270A128A15C9308312C0
:1017E2000313D7005708CC002D300A128A11EA27BA
:1017F2000A128A15CA3083120313D7005708CC0085
:10180200831603132F080A128A11EA270A128A156D
:10181200CB3083120313D7005708CC00831603136F
:1018220030080A128A11EA270A128A150130831235
:101832000313D700570883160313C1070930410663
:10184200031D242C252C322CC101831203132B08D7
:1018520003192C2C2E2C01302F2C0030D7005708C6
:10186200AB000800053083120313E1006108831600
:101872000317A000133083120313E10061088316DB
:1018820003179F009A019B01960197019801990104
:101892009001910192019301940195010A168A1512
:1018A20084240A128A1501300A168A15AF240A12F4
:1018B2008A1583120313E1006108831603179D0042
:1018C20000300A168A15AF240A128A1583120313EE
:1018D200E1006108831603179E002003031D722C8A
:1018E200732C952C37301D060319782C792C7F2CFC
:1018F2002F301D06031D7E2C7F2C952C0A168A156F
:1019020079230A128A15023083120313E100610857
:1019120083160317A000103083120313E10061083D
:10192200831603179F00CE2F02302006031D9A2C28
:101932009B2CE62C37301E06031DA02CA12CE62C76
:1019420001309A0703189B0A00309B0715301A06CC
:101952001B04031DAD2CAE2CE62C9A019B01D42C4A
:101962000330E100610883160317A00011308312CF
:101972000313E1006108831603179F000A168A15F4
:1019820079230A128A15CE2F0430E10061088316EA
:101992000317A000123083120313E10061088316BB
:1019A20003179F00BF2C1C0883120313E100E201FE
:1019B2006208003A0319DE2CCE2F6108003A03199F
:1019C200B12C013A0319C52CCE2F03302006031D7A
:1019D200EB2CEC2C322D37301E06031DF12CF22C91
:1019E200322D013096070318970A003097071530F9
:1019F20016061704031DFE2CFF2C322D96019701AB
:101A0200202D0530E100610883160317A000133072
:101A120083120313E1006108831603179F00BF2C92
:101A22000630E100610883160317A0001530831207
:101A32000313E1006108831603179F00BF2C1C08E3
:101A420083120313E100E2016208003A03192A2D0E
:101A5200CE2F6108003A0319022D013A0319112D04
:101A6200CE2F04302006031D372D382D7F2D373021
:101A72001E06031D3D2D3E2D7F2D013098070318B4
:101A8200990A00309907153018061904031D4A2DCA
:101A92004B2D7F2D980199016C2D0730E1006108D3
:101AA20083160317A000143083120313E1006108A8
:101AB200831603179F00BF2C0830E10061088316CC
:101AC2000317A000163083120313E1006108831686
:101AD20003179F00BF2C1C0883120313E100E201CD
:101AE2006208003A0319762DCE2F6108003A0319D5
:101AF2004E2D013A03195D2DCE2FCE2F0230200636
:101B0200031D842D852DA52D2F301E06031D8A2D24
:101B12008B2DA52D013090070318910A00309107F3
:101B2200153010061104031D972D982DA52D900137
:101B32009101A001A00A173083120313E10061088A
:101B4200831603179F00CE2F03302006031DAA2DF4
:101B5200AB2DC12D2F301E06031DB02DB12DC12D71
:101B6200013092070318930A0030930715301206CA
:101B72001304031DBD2DBE2DC12D92019301842C92
:101B820004302006031DC62DC72DDD2D2F301E0665
:101B9200031DCC2DCD2DDD2D013094070318950AA0
:101BA20000309507153014061504031DD92DDA2DC2
:101BB200DD2D94019501842C07302006031DE22DB2
:101BC200E32D422E2F301E06031DE82DE92D422E55
:101BD20001309A0703189B0A00309B0715301A063A
:101BE2001B04031DF52DF62D422E9A019B01043094
:101BF20083120313E100610883160317A000123059
:101C020083120313E1006108831603179F008312F6
:101C120003133C080A128A150C200A128A15831231
:101C22000313E1006108DD0000300A168A15392429
:101C32000A128A15831203133B080A128A150C2012
:101C42000A128A1583120313E1006108DD000130D4
:101C52000A168A1539240A128A15831203133A08BE
:101C62000A128A150C200A128A1583120313E10044
:101C72006108DD0002300A168A1539240A128A1513
:101C8200BF2C08302006031D472E482EA72E2F30CA
:101C92001E06031D4D2E4E2EA72E01309607031849
:101CA200970A00309707153016061704031D5A2E9F
:101CB2005B2EA72E96019701043083120313E100D5
:101CC200610883160317A000123083120313E10088
:101CD2006108831603179F008312031337080A1241
:101CE2008A150C200A128A1583120313E100610877
:101CF200DD0006300A168A1539240A128A15831263
:101D0200031338080A128A150C200A128A15831244
:101D12000313E1006108DD0005300A168A15392433
:101D22000A128A158312031339080A128A150C2023
:101D32000A128A1583120313E1006108DD000430E0
:101D42000A168A1539240A128A15BF2C0530200674
:101D5200031DAC2EAD2ED82E2F301E06031DB22E23
:101D6200B32ED82E013098070318990A003099072C
:101D7200153018061904031DBF2EC02ED82E980147
:101D82009901033083120313E100610883160317DC
:101D9200A000113083120313E100610883160317B8
:101DA2009F000A168A159E230A128A15BF2C063036
:101DB2002006031DDD2EDE2E7E2D2F301E06031D76
:101DC200E32EE42E7E2D01309A0703189B0A003081
:101DD2009B0715301A061B04031DF02EF12E7E2DD3
:101DE2009A019B01033083120313E10061088316F9
:101DF2000317A000113083120313E1006108831658
:101E020003179F00BF2C831603171F080A128A119B
:101E1200E9250A128A15F42F1215831603171D08D5
:101E220083120313E1006108CE00831603171F0813
:101E32000A168A112B210A128A1583120313E20051
:101E42006208831603179C0022301C06031D2A2FEA
:101E52002B2FF42FA001A00A173083120313E100E5
:101E62006108831603179F000A168A1579230A123E
:101E72008A15542C1215831603171D088312031397
:101E8200E1006108CE00831603171F080A168A11A3
:101E9200CF210A128A1583120313E2006208831605
:101EA20003179C0022301C06031D582F592FF42FB4
:101EB200023083120313E100610883160317A000A6
:101EC200103083120313E1006108831603179F0089
:101ED200352F1215831603171D0883120313E10011
:101EE2006108CE00831603171F080A168A1173228F
:101EF2000A128A1583120313E2006208831603177B
:101F02009C0022301C06031D872F882FF42F592F87
:101F12001211831603171D0883120313E1006108CF
:101F2200D600831603171F080A168A1104250A12FF
:101F32008A15F42F1211831603171D088312031337
:101F4200E1006108D600831603171F080A128A15DA
:101F520005210A128A15F42F1211831603171D0880
:101F620083120313E1006108D600831603171F08CA
:101F72000A128A1139200A128A15F42F12158316B1
:101F820003171F080A168A11C5230A128A15223A54
:101F9200031DCC2FCD2FF42F592F831603172008A2
:101FA20083120313E100E2016208003A0319DA2FF7
:101FB200F42F6108013A0319042F033A03190D2F74
:101FC200013A03193B2F073A03196A2F013A031901
:101FD200AD2F033A0319BF2F013A0319892F0F3A84
:101FE20003199B2FF42F093083120313E1006108B8
:101FF200831603179F00542C0A128A111028FF1B04
:102002000A2883137F1883170008840A0319FF0A1A
:10201200080010308A000408840A820700344F3412
:1020220044345734003420342034203420344834AB
:1020320048343A344D344D343A34533453342034E2
:10204200203420342034003420342034203420340E
:10205200443444342D344D344D342D3459345934B0
:102062002034203420342034003453344534543462
:102072002F34563449344534573420344534563499
:1020820045344E34543400345334453454342034BB
:10209200543449344D3445342F3444344134543467
:1020A20045340034533445345434203445345634A2
:1020B20045344E345434003453344534543420348B
:1020C200543449344D344534003453344534543453
:1020D2002034443441345434453400345434493483
:1020E2004D344534203420340034443441345434A3
:1020F2004534203420340034303420344434203405
:102102002D342034003444345534523420342D34A8
:102112002034003423342034543420342D342034F9
:102122000034543449344D3445342D342034003491
:102132004534563445344E3454342034003430342B
:102142003034003483120313CF00CE014F1CAA286F
:10215200AB28AF284C08CD004D08CE070310CC0D9C
:102162000310CF0C4F08031DB728B828A7284E0824
:102172000800C33083120313CB00CC30CA00CA0B51
:10218200C028CB0BC0280000F40133300A168A1590
:10219200E4250A168A111B3083120313CB009D30EB
:1021A200CA00CA0BD228CB0BD228D728F40133306D
:1021B2000A168A15E4250A168A11A530831203131A
:1021C200CA00CA0BE228E528F40133300A168A1540
:1021D200E4250A168A11ED28EE280000F4010230E7
:1021E2000A168A15E4250A168A11A53083120313EA
:1021F200CA00CA0BFA28FD28F40128300A168A15EB
:10220200E4250A168A11A53083120313CA00CA0BE9
:1022120008290B29F40101300A168A15E4250A1649
:102222008A11043083120313CB003D30CA00CA0B5B
:102232001829CB0B1829F4010C300A168A15E4254B
:102242000A168A11A53083120313CA00CA0B272962
:102252002A29080083120313D00010305006031DF0
:10226200332934294429B5010A168A1579230A1615
:102272008A110530F6000030F7003F308312031355
:10228200CF004F08CE0076087704031D49294A295A
:102292004C292230CE292F304E06031D51295229B6
:1022A20060293508031D5629572960290130CF00BE
:1022B2004F08B5070530F6000030F7006E293730B9
:1022C2004E06031D652966296E29350803196A29F8
:1022D2006B296E290130B5025B293508031D72296D
:1022E20073298A298030CF004F08CC003E300A1271
:1022F2008A11EA270A168A11C03083120313CF000B
:102302004F08CC0020300A128A11EA270A168A11D5
:10231200A5293503031D8E298F29A5298030CF00D9
:102322004F08CC0020300A128A11EA270A168A11B5
:10233200C03083120313CF004F08CC003E300A1284
:102342008A11EA270A168A11831603135E0883127A
:102352000313CA000030031D8030CB008230CF004F
:102362004F08CC000A168A15DE240A168A11831633
:1023720003135F0883120313CA000030031D803069
:10238200CB00C230CF004F08CC000A168A15DE24DB
:102392000A168A11831203133508080083120313E5
:1023A200D00011305006031DD729D829E829B401DD
:1023B2000A168A1579230A168A110530F6000030AA
:1023C200F7003F3083120313CF004F08CE00760888
:1023D2007704031DED29EE29F0292230722A2F30CD
:1023E2004E06031DF529F629042A3408031DFA298D
:1023F200FB29042A0130CF004F08B4070530F6004C
:102402000030F700122A37304E06031D092A0A2A25
:10241200122A340803190E2A0F2A122A0130B40292
:10242200FF293408031D162A172A2E2A8030CF00CE
:102432004F08CC003E300A128A11EA270A168A1186
:10244200C03083120313CF004F08CC0020300A1291
:102452008A11EA270A168A11492A3403031D322AED
:10246200332A492A8030CF004F08CC0020300A128C
:102472008A11EA270A168A11C03083120313CF0089
:102482004F08CC003E300A128A11EA270A168A1136
:10249200831603135C0883120313CA000030031D62
:1024A2008030CB008230CF004F08CC000A168A154C
:1024B200DE240A168A11831603135D08831203139E
:1024C200CA000030031D8030CB00C230CF004F085D
:1024D200CC000A168A15DE240A168A118312031307
:1024E2003408080083120313D00012305006031D73
:1024F2007B2A7C2A8C2AB3010A168A1579230A16AA
:102502008A110530F6000030F7003F3083120313C2
:10251200CF004F08CE0076087704031D912A922A35
:10252200942A2230162B2F304E06031D992A9A2AFE
:10253200A82A3308031D9E2A9F2AA82A0130CF0009
:102542004F08B3070530F6000030F700B62A3730DF
:102552004E06031DAD2AAE2AB62A33080319B22A43
:10256200B32AB62A0130B302A32A3308031DBA2ABA
:10257200BB2AD22A8030CF004F08CC003E300A124C
:102582008A11EA270A168A11C03083120313CF0078
:102592004F08CC0020300A128A11EA270A168A1143
:1025A200ED2A3303031DD62AD72AED2A8030CF0025
:1025B2004F08CC0020300A128A11EA270A168A1123
:1025C200C03083120313CF004F08CC003E300A12F2
:1025D2008A11EA270A168A11831603135A088312EC
:1025E2000313CA000030031D8030CB008230CF00BD
:1025F2004F08CC000A168A15DE240A168A118316A1
:1026020003135B0883120313CA000030031D8030DA
:10261200CB00C230CF004F08CC000A168A15DE2448
:102622000A168A1183120313330808003F308312FB
:102632000313C8000030C9000730CA000030CB00C5
:10264200CD300A168A1520260A168A118312031320
:1026520048084904031D2E2B2F2B6C2B9130C800E8
:102662008030C9000230CA000030CB00D7300A16D1
:102672008A1520260A168A11831203134808490470
:10268200031D442B452B6C2B3C30D0005008BD0061
:1026920008300A168A15AF250A168A118312031307
:1026A200D0000A30D1005108CC0007300A168A1532
:1026B200AF250A168A110A168A11A3200A168A1150
:1026C200831203135007F03ED2005208F90083161A
:1026D2000313BF01BF0A831603133F080319722BAA
:1026E200732BC42B44305606031D782B792B8D2B6C
:1026F200790803197D2B7E2B842B0A168A15132346
:102702000A168A11C42B0A168A1519230A168A1167
:1027120083160313BF01C42B4F305606031D922BA1
:10272200932BAB2B79080319972B982B992B7E2B84
:102732000A168A1519230A168A11303083120313D6
:10274200D0005008F50000300A168A15D2230A1666
:102752008A11892B57305606031DB02BB12BC42B7F
:1027620010300A168A15AF250A168A11831603132A
:102772004C06031DBD2BBE2BC42B79080319C22B9B
:10278200C32B842B7E2B080083120313CF0015303A
:102792004F06031DCD2BCE2BFA2C0530F600003050
:1027A200F7000A168A1579230A168A117C308312D9
:1027B2000313CA008030CB008030CE004E08CC001C
:1027C2000A168A15DE240A168A116E308312031342
:1027D200CA008030CB00C030CE004E08CC000A16B2
:1027E2008A15DE240A168A11863083120313CE005C
:1027F2004E08CC0001300A168A15AF250A168A1136
:102802000A128A11EA270A168A11873083120313E1
:10281200CE004E08CC0002300A168A15AF250A16E1
:102822008A110A128A11EA270A168A11883083123B
:102832000313CE004E08CC003A300A128A11EA275E
:102842000A168A11893083120313CE004E08CC0077
:1028520003300A168A15AF250A168A110A128A113E
:10286200EA270A168A118A3083120313CE004E0811
:10287200CC0004300A168A15AF250A168A110A12EC
:102882008A11EA270A168A118B3083120313CE00AB
:102892004E08CC0020300A128A11EA270A168A1141
:1028A2008C3083120313CE004E08CC0005300A167A
:1028B2008A15AF250A168A110A128A11EA270A1600
:1028C2008A118D3083120313CE004E08CC000630DD
:1028D2000A168A15AF250A168A110A128A11EA27E0
:1028E2000A168A118F3083120313CE004E08CC00D1
:1028F2002F300A128A11EA270A168A11C630831269
:102902000313CE004E08CC0030300A128A11EA2797
:102912000A168A11C73083120313CE004E08CC0068
:1029220030300A128A11EA270A168A11C830831235
:102932000313CE004E08CC003A300A128A11EA275D
:102942000A168A11C93083120313CE004E08CC0036
:1029520007300A168A15AF250A168A110A128A1139
:10296200EA270A168A11CA3083120313CE004E08D0
:10297200CC0008300A168A15AF250A168A110A12E7
:102982008A11EA270A168A11CB3083120313CE006A
:102992004E08CC003A300A128A11EA270A168A1126
:1029A200CC3083120313CE004E08CC0030300A1212
:1029B2008A11EA270A168A11CD3083120313CE0038
:1029C2004E08CC0030300A128A11EA270A168A1100
:1029D200CF3083120313CE004E08CC0009300A1602
:1029E2008A15AF250A168A110A128A11EA270A16CF
:1029F2008A1176087704031DFF2C002D022D223048
:102A0200032D3030080083120313DA0014305A0603
:102A1200031D0C2D0D2D032E3F30D7005708D60075
:102A2200B201B20AB101B00183160313C2010A1640
:102A32008A1579230A168A11053083120313CA00F4
:102A42008030CB008030D7005708CC000A168A1598
:102A5200DE240A168A110A168A15F4230A168A1126
:102A6200831203132008D70004300310D70CFF3E53
:102A7200031D362D57080339303ED8005808BF00D1
:102A820020080F39303ED7005708C0002108D70070
:102A920004300310D70CFF3E031D4A2D5708073997
:102AA200303ED8005808C10021080F39303ED70007
:102AB2005708C2002208D70004300310D70CFF3E8B
:102AC200031D5E2D57080739303ED8005808C30051
:102AD20022080F39303ED7005708C400C501C43060
:102AE200D7005708CC003F080A128A11EA270A16B3
:102AF2008A11C53083120313D7005708CC0040084F
:102B02000A128A11EA270A168A11C630831203139F
:102B1200D7005708CC003A300A128A11EA270A165F
:102B22008A11C73083120313D7005708CC0041081B
:102B32000A128A11EA270A168A11C830831203136D
:102B4200D7005708CC0042080A128A11EA270A164F
:102B52008A11C93083120313D7005708CC003A30C8
:102B62000A128A11EA270A168A11CA30831203133B
:102B7200D7005708CC0043080A128A11EA270A161E
:102B82008A11CB3083120313D7005708CC004408B4
:102B92000A128A11EA270A168A110A3083120313CB
:102BA200D7005708CC003F080A168A11A3200A163C
:102BB2008A11831203134007F03ED8005808BA0066
:102BC2000A30D7005708CC0041080A168A11A32000
:102BD2000A168A11831203134207F03ED8005808DE
:102BE200BB000A30D7005708CC0043080A168A11E6
:102BF200A3200A168A11831203134407F03ED80059
:102C02005808BC0037305606031D082E092E3D2EEB
:102C1200310803190D2E0E2E1A2E0130D700570837
:102C2200BB073D303B02031C172E182E602EBB0142
:102C3200602E300803191E2E1F2E2B2E0130D700B6
:102C42005708BA0719303A02031C282E292E602E83
:102C5200BA01602E320803192F2E302E3C2E01307D
:102C6200D7005708BC073D303C02031C392E3A2ED0
:102C7200602EBC01602E602E2F305606031D422EA0
:102C8200432E602E32080319472E482E4D2EB001D6
:102C9200B101B10AB201602E31080319512E522E30
:102CA200572EB001B00AB101B201602E30080319EB
:102CB2005B2E5C2E3C2EB001B101B201B20A320889
:102CC2000319642E652E6A2E2F080319692E6A2EA7
:102CD200AE2E0A30D0000030D1000A30C8000030D9
:102CE200C9003C08D700D8015708CA005808CB00D1
:102CF2000A168A1597270A168A118312031349089E
:102D0200D3004808D2000A168A1570260A168A11BC
:102D1200831203135008303ED90059088316031357
:102D2200B6000A3083120313D0000030D1003C08F1
:102D3200D700D8015708D2005808D3000A168A15BE
:102D420070260A168A11831203135008303ED900E6
:102D5200590883160313B700BC2E2030D70057083A
:102D620083160313B600203083120313D7005708CB
:102D720083160313B7008312031331080319C22EFB
:102D8200C32EC82E2F080319C72EC82E0C2F0A30A7
:102D9200D0000030D1000A30C8000030C9003B0822
:102DA200D700D8015708CA005808CB000A168A155E
:102DB20097270A168A11831203134908D300480879
:102DC200D2000A168A1570260A168A118312031374
:102DD2005008303ED900590883160313B4000A3054
:102DE20083120313D0000030D1003B08D700D80172
:102DF2005708D2005808D3000A168A1570260A16F8
:102E02008A11831203135008303ED90059088316E1
:102E12000313B5001A2F2030D70057088316031367
:102E2200B400203083120313D7005708831603130C
:102E3200B5008312031330080319202F212F262FE8
:102E42002F080319252F262F6A2F0A30D0000030B1
:102E5200D1000A30C8000030C9003A08D700D801B2
:102E62005708CA005808CB000A168A1597270A166F
:102E72008A11831203134908D3004808D2000A16A4
:102E82008A1570260A168A11831203135008303EDF
:102E9200D900590883160313B2000A3083120313B0
:102EA200D0000030D1003A08D700D8015708D2002C
:102EB2005808D3000A168A1570260A168A11831238
:102EC20003135008303ED900590883160313B30088
:102ED200782F2030D700570883160313B200203012
:102EE20083120313D700570883160313B300C430A9
:102EF20083120313D7005708CC008316031332083A
:102F02000A128A11EA270A168A11C530831203139C
:102F1200D7005708CC008316031333080A128A110C
:102F2200EA270A168A11C63083120313D7005708FC
:102F3200CC003A300A128A11EA270A168A11C730DF
:102F420083120313D7005708CC00831603133408E7
:102F52000A128A11EA270A168A11C8308312031349
:102F6200D7005708CC008316031335080A128A11BA
:102F7200EA270A168A11C93083120313D7005708A9
:102F8200CC003A300A128A11EA270A168A11CA308C
:102F920083120313D7005708CC0083160313360895
:102FA2000A128A11EA270A168A11CB3083120313F6
:102FB200D7005708CC008316031337080A128A1168
:102FC200EA270A168A11013083120313D700570821
:102FD20083160313C20709304206031DF12FF22F95
:102FE200FF2FC201831203132F080319F92FFB2F9E
:0E2FF2000130FC2F0030D7005708AF00080058
:103626008312031307080238870008008312031366
:103636000708FD3987000800831603130708FD39BC
:10364600870008008316031306083F388600080023
:103656004E34573444342B34273436340134640022
:103666008001840A0406031900340406332B0A1663
:103676008A156C230A168A1583160313111408007B
:103686000A168A156C230A168A1583160313111552
:1036960008008312031312149214FA3083160313CC
:1036A60092008C140800F4000A168A156C230A1678
:1036B6008A15740883120313930008000A168A15E4
:1036C60043230A168A150A168A153A230A168A15F4
:1036D6000800831603131419712B722B6C2B110817
:1036E6001F39031D772B782B6C2B0800F401013052
:1036F6000A168A15E4250A168A150430831203135E
:10370600CB003D30CA00CA0B862BCB0B862B08009C
:103716007E088A007F0882000A168A158B230A16FD
:103726008A158000840A04087D0603190034FF0AFE
:103736000319FE0A8F2B313083120313CC004C0879
:10374600F50000300A168A15D2230A168A15CD30DE
:1037560083120313CC004C08C90001300A168A15DF
:1037660016240A168A15080000300A168A154525F9
:103776000A168A1583120313DF005F08E00060084B
:103786007F39DF005F08E0006008DF005F08DD00CA
:1037960000300A168A1539240A168A15080083127B
:1037A6000313C8000A168A153A230A168A15A0308A
:1037B6000A168A1556230A168A1583120313480811
:1037C6000A168A1556230A168A1575080A168A15C0
:1037D60056230A168A150A168A1543230A168A15C7
:1037E600080002300A168A1545250A168A1583121C
:1037F6000313CC004C08A00001300A168A15452593
:103806000A168A1583120313CC004C08A100003057
:103816000A168A1545250A168A1583120313CC0043
:103826004C08A200080083120313CB00302C490871
:1038360084000008CA004A08F5004B080A168A15D3
:10384600D2230A168A15013083120313CA004A08C6
:10385600C9070130CA004A08CB0749088400831308
:103866000008031D372C382C1A2C0800831203136A
:10387600DE000A168A153A230A168A15D0300A1669
:103886008A1556230A168A15831203135E080A162A
:103896008A1556230A168A15831203135D080A161B
:1038A6008A1556230A168A150A168A1543230A16F6
:1038B6008A15080083120313C8000A168A156C239A
:1038C6000A168A158316031391150A168A156C2390
:1038D6000A168A15831203131308F4007408C90024
:1038E6004803031D772C782C7C2C83160313911622
:1038F6007F2C8316031391121116831203134908A2
:103906000800003083120313D8000130D700863038
:10391600D600A030D5000A168A1511250A168A1572
:103926000A168A15B7230A168A150A168A15252332
:103936000A168A150A128A1501200A168A150A1607
:103946008A154C230A168A150A168A151F230A1683
:103956008A158B170B170800F5007508031DB42C84
:10396600B52CBA2C8312031306083F39DD2C3F30E1
:10397600831203130605F4003F3074060319C42CA2
:10398600C52CCE2C8316031360080319CB2CCC2C24
:10399600CE2CE001B52C3F3083120605F4003F30F3
:1039A6007406031DD72CD82CDC2C83160313E001D8
:1039B600E00A3F300800F401831203134C080A168C
:1039C6008A15E4250A168A15002DF401F40A4B0817
:1039D600FF004A0884000A168A1100200A168A1572
:1039E6000A168A15E4250A168A150130831203136E
:1039F600CA070318CB0A0030CB07831203134B0800
:103A0600FF004A0884000A168A1100200A168A1541
:103A1600003A031D0F2D102DE82C08008312031306
:103A260094155508D9005608DA005708DB005808DF
:103A3600DC0002300310D90DDA0DDB0DDC0DFF3E84
:103A4600031D1D2D5C08CB005B08CA005A08C9007F
:103A56005908C8000130CF003130CE002D30CD00DE
:103A66000030CC000A168A152F270A168A158312EB
:103A760003134808FF3E83160313930083120313B0
:103A86009416080083120313CA000A168A153A23ED
:103A96000A168A15D0300A168A1556230A168A156A
:103AA600831203134A080A168A1556230A168A151C
:103AB6000A168A1561230A168A15D1300A168A153E
:103AC60056230A168A1500300A168A155D240A1628
:103AD6008A15F500750883120313CB000A168A159A
:103AE60043230A168A15831203134B080800043071
:103AF6000A168A1545250A168A1583120313CC0061
:103B06004C0883160313B90005300A168A15452595
:103B16000A168A1583120313CC004C088316031366
:103B2600BA0006300A168A1545250A168A15831222
:103B36000313CC004C0883160313BB0003300A168C
:103B46008A1545250A168A1583120313CC004C08DC
:103B560083160313BC00080083120313CA000A1657
:103B66008A153A230A168A15A0300A168A1556238C
:103B76000A168A15831203134A080A168A1556234B
:103B86000A168A150A168A1561230A168A15A1309D
:103B96000A168A1556230A168A1500300A168A1539
:103BA6005D240A168A15F500750883120313CB00E7
:103BB6000A168A1543230A168A15831203134B081D
:103BC6000800F5007418E82DEC2D8312031309156F
:103BD600EF2D8312031309117508F0398800891433
:103BE600A53083120313C800C80BF72DFA2D8312D4
:103BF6000313891075080F39C80003300310C80D68
:103C0600FF3E031D012E0310480D88008914A530C0
:103C160083120313C800C80B0E2E112E8312031332
:103C260089101B3083120313C9009D30C800C80BCE
:103C36001A2EC90B1A2E1F2E080083120313CC004E
:103C46005F2E4C0884008313000803192B2E2C2E9C
:103C56003F2E4908FF00480884000A168A110020F2
:103C66000A168A15F4004C088400831300087406AB
:103C760003193E2E3F2E552E4908FF0048088400A2
:103C86000A168A1100200A168A15F4004C088400C8
:103C960083130008F50074087502C800C901031CE7
:103CA600C9036F2E0130F4007408CC070130C80731
:103CB6000318C90A0030C9070130CA020030031CC4
:103CC600CB03CB024A0A031D6C2E4B0A031D6C2E36
:103CD6006D2E242EC801C901080083120313D501D5
:103CE600D31F762E772E7E2ED209D309D20A031938
:103CF600D30AD501D50AD11F812E822E872ED0094F
:103D0600D109D00A0319D10A5008510403198C2E7F
:103D16008D2EBC2ED401D40A9B2E01300310D00D5B
:103D2600D10DFF3E031D912E0130F5007508D40715
:103D3600D11F9E2E9F2E902E51085302031DA52E95
:103D460050085202031CA82EA92EAF2E5008D202EC
:103D56005108031CD303D30201300310D10CD00C3D
:103D6600FF3E031DB02E0130D402031DBB2EBC2E18
:103D76009F2E55080319C02EC12EC62ED209D3096F
:103D8600D20A0319D30A5308D1005208D0000800FA
:103D96008C1CCE2ECF2E262F013083160313BD0783
:103DA6000318BE0A0030BE07E2303D060430031990
:103DB6003E06031DDF2EE02E232FBD01BE0183121A
:103DC60003133E080319E82EE92EEB2E0130BE023E
:103DD6003D080319EF2EF02EF22E0130BD023E08EB
:103DE600031DF62EF72E0A2F7708803AFF00803043
:103DF6007F02031D002F01307602031C032F042FC0
:103E06000A2FFF30F6070318F70AFF30F70779087D
:103E160003190E2F0F2F232F831203133D08031DA3
:103E2600152F162F232F0130F902790803191C2F9D
:103E36001D2F222F3C30F0007008BD00232FBD013E
:103E4600831203138C107308FF0072088A00710E28
:103E56008300FE0E7E0E0900003083120313D3008A
:103E66000030D2000030D1000030D0004B084A04A8
:103E7600490448040319402F412F8E2FD401D40A38
:103E8600512F0130F4000310C80DC90DCA0DCB0D1A
:103E9600F40B462F0130F4007408D407CB1F542FBF
:103EA600552F442F0130F4000310D00DD10DD20D43
:103EB600D30DF40B572F4B084F02031D6C2F4A08E6
:103EC6004E02031D6C2F49084D02031D6C2F480836
:103ED6004C02031C6F2F702F7F2F4808CC02490815
:103EE600031C490FCD024A08031C4A0FCE024B0899
:103EF600031C4B0FCF02501401300310CB0CCA0C1D
:103F0600C90CC80CFF3E031D802F0130D402031DCF
:103F16008D2F8E2F552F5308CB005208CA005108FB
:103F2600C9005008C800080083120313CD01C91F39
:103F36009D2F9E2FA52FC809C909C80A0319C90AAA
:103F4600CD01CD0ACB1FA82FA92FB22FCA09CB09A5
:103F5600CA0A0319CB0A0130F4007408CD06CE0153
:103F6600CF01480849040319B92FBA2FF12FCC0104
:103F7600CC0AC82F01300310C80DC90DFF3E031D22
:103F8600BE2F0130F4007408CC07C91FCB2FCC2FED
:103F9600BD2F01300310CE0DCF0DFF3E031DCD2FDB
:103FA60049084B02031DD92F48084A02031CDC2F7F
:103FB600DD2FE42F4808CA024908031CCB03CB02B5
:103FC6004E1401300310C90CC80CFF3E031DE52F2B
:103FD6000130CC02031DF02FF12FCC2F4D08031911
:103FE600F52FF62FFB2FCE09CF09CE0A0319CF0ADC
:0A3FF6004F08C9004E08C80008007B
:02400E00FB3F76
:00000001FF
